:100000000C948F010C94D6010C94D6010C94D6015B
:100010000C94D6010C94D6010C94D6010C94D60104
:100020000C94D6010C94D6010C94521B0C94241CF5
:100030000C9496120C94D6010C94D6010C94D60113
:100040000C94D6010C94D6010C94D6010C94D601D4
:100050000C94D6010C94FE120C94D6010C94D6018B
:100060000C94D6010C94D6010C94D6010C94D601B4
:100070000C94D6010C94D6010C94D6010C94D601A4
:100080000C94D6010C94D6010C94D6010C94D60194
:100090000C94D6010C94D6010C94D6010C94D60184
:1000A0000C94D6010C94D6010C94D6015102530243
:1000B0005E025502570259025B025D026002620253
:1000C00064026F02660268026A026C026E027102CA
:1000D000FB08FB082E092E096D098D09BD0ABD0A12
:1000E0009809BD0A480A480AAE0ABD0ABD0AB70AFD
:1000F000550A550A550A550A550A550A550A550A08
:10010000550A550A550A550A550A550A550A550AF7
:10011000650A730A7A0A810A8B0A3A0B3A0B4C0B6E
:100120004C0B430B4C0B4C0B4C0B3A0B3A0B480B48
:100130004C0B4C0B480B911CB31CA11DB31CA11DF7
:10014000F81C1B1DA11D701D831D5300540055007C
:1001500056005F006000610057005C005D005E00BB
:100160002B0059005A005B00670062004C0037000A
:10017000580012036B006500790062006F00610097
:10018000720064000000160371006D006B006200D5
:10019000750069006C0064006500720000000403D3
:1001A000090409026D00040100A0FA09040000011D
:1001B000030101000921110100012240000705810E
:1001C0000308000A090401000103010200092111CA
:1001D000010001224D000705820308000A090402FC
:1001E000000103000000092111010001223600076F
:1001F00005830308000A0904030001030000000945
:100200002111010001223900070584032000011299
:1002100001100100000008EDFE6060010001020015
:100220000105010906A101050719E029E7150025C7
:1002300001950875018102050819012905950575C3
:100240000191029501750391010507190029F71520
:1002500000250195F875018102C005010980A10101
:1002600085021601002603001A81002A83007510FA
:1002700095018100C0050C0901A10185031601004B
:10028000269C021A01002A9C02751095018100C06B
:1002900005010902A1010901A100050919012905AA
:1002A00015002501950575018102950175038101F0
:1002B0000501093009311581257F950275088106F0
:1002C00009381581257F950175088106050C0A38C6
:1002D000021581257F950175088106C0C0050109B9
:1002E00006A101050719E029E71500250195087504
:1002F00001810295017508810105081901290595FB
:1003000005750191029501750391010507190029F1
:10031000FF150026FF00950675088100C000112416
:100320001FBECFEFDAE0DEBFCDBF04B603FE27C0AD
:100330008091150290911602A0911702B0911802B7
:100340008730904BA740B04BD1F410921502109219
:100350001602109217021092180214BE84B7877FFB
:1003600084BF0FB6F894A89580916000886180934F
:100370006000109260000FBEE0E0F8E3099511E024
:10038000A0E0B1E0E8EDFEE302C005900D92A033DD
:10039000B107D9F722E0A0E3B1E001C01D92A53179
:1003A000B207E1F70E9499180C946A1F0C940000A0
:1003B00080E090E008950895089581E008950895FB
:1003C00081E008950C94DD010E94280B2FEF84E357
:1003D0009CE0215080409040E1F700C000000C9468
:1003E0002313FF920F931F93CF93DF938C01FC0194
:1003F000C081D18180916001811113C082818823E5
:1004000049F0CE010E947410F82E682FCE010E9490
:100410001B1004C0CE010E944910F82EBE018F2D82
:1004200004C0CE010E947410BE010E940B03EC01B7
:10043000B8010E94E201882309F4DDC0B801CE01B1
:100440000E941D05882309F4D6C0C531F0E7DF07F7
:1004500008F07EC0C23080E7D80708F452C0F80127
:100460008281882309F459C00E942812811102C098
:100470000E940E120E94451290E090930702809312
:100480000602FE01E350F047E231F10530F4EA5A8A
:10049000FF4F809106020C941A1F80910602816022
:1004A00027C0826025C0846023C0806121C0806233
:1004B0001FC080641DC080681BC08460886018C035
:1004C0008E7F16C08D7F14C08B7F12C08F7E10C0B0
:1004D0008F7D0EC08F7B0CC08F770AC08B7F877F8C
:1004E00007C087FB222720F991E0922790FB87F92C
:1004F00080930602809106020E9449120E94280BF6
:100500007AC0C115E0E7DE0781F0C130D047A9F01D
:1005100081E08093320180933301C801DF91CF9154
:100520001F910F91FF900C94E001F80182818823C4
:1005300009F461C00E94E4015EC0F8018281882351
:1005400009F459C08091D50181608093D50153C0D1
:10055000CC3380E7D80719F5F8018281882351F060
:10056000109232010E94C8129093310180933001A1
:1005700082E026C08091320181110FC0809130014C
:10058000909131010E94D412883C910530F486E2AA
:100590000E949F0786E20E94670882E019C0CD335F
:1005A000D04709F0B5CFF8018281882361F010921D
:1005B00033010E94C812909331018093300180E290
:1005C0000E94B60818C080913301882321F080E290
:1005D0000E94BD0810C080913001909131010E94AD
:1005E000D412883C910598F787E20E949F0787E222
:1005F0000E946708ECCF80E0DF91CF911F910F91AF
:10060000FF9008950C946C050C946E050C94DF011A
:100610000C9406030895E72FF0E095E0899FE00D24
:10062000F11D1124EE0FFF1FEE0FFF1FE60FF11D4E
:10063000EE0FFF1FE65BFE4F859194910895880FA2
:10064000991FFC01EE58FE4F8591949108950E94E8
:100650000B030E949F04811520E49207B0F58115D9
:1006600040E3940708F0DEC0803E9105D8F4803C5A
:10067000910508F06CC0883A910578F4853A9105A7
:1006800008F068C08130910509F458C108F40FC121
:100690008430910508F052C10AC18D3B910508F4E0
:1006A00064C005C18F3F910509F048F4803F910572
:1006B00008F0B2C0883E910508F440C1F8C0811529
:1006C00060E2960708F0AAC00895811573E59707C0
:1006D00090F4811522E5920708F0C8C0811541E524
:1006E000940708F0BEC0811560E5960708F09DC02C
:1006F0009F70906A0895811575E59707D8F4811564
:1007000024E5920708F0C8C0482F4695469570E248
:10071000479FA00111248370992721E030E0B9019F
:1007200002C0660F771F8A95E2F7CB01842B952BC9
:100730009A680895811546E5940708F4B2C09C01B3
:1007400030562115304108F0B2C09F70AEC0805CB9
:10075000910965C0853A910509F4ACC0863A9105C6
:1007600009F0ABC082E890E40895883A910509F455
:10077000A7C0893A910509F4A6C08A3A910509F4FF
:10078000A5C08B3A910509F4A4C08C3A910509F4EF
:10079000A3C08B3B910509F4A2C08C3B910509F4E1
:1007A000A1C08D3A910509F4A0C0803B910509F4E0
:1007B0009FC08E3A910509F49EC08F3A910509F4C5
:1007C0009DC0813B910509F49CC0823B910509F4D1
:1007D0009BC0833B910509F49AC0843B910509F4C1
:1007E00099C0853B910509F498C0863B910509F4B1
:1007F00097C0873B910509F496C0883B910509F4A1
:1008000095C0893B910509F494C08A3B910509F490
:1008100093C080E094E40895906508959F700E94CD
:100820001F0308959927906C0895482F437021E085
:1008300030E002C0220F331F4A95E2F73C68AC015A
:1008400064E0569547956A95E1F74370342B8F70B5
:100850008695869570E2879FC0011124822B932B89
:100860000895982F8827816F906A0895482F46959C
:10087000469520E2429FA00111248370992721E030
:1008800030E0B90102C0660F771F8A95E2F7CB010D
:10089000842B952B9C680895982F8827846F906AE5
:1008A00008958F719927982F88279062089580E086
:1008B00090E0089581E890E4089583E890E4089535
:1008C00082EE94E4089589EE94E408958AEE94E427
:1008D000089585EB94E4089586EB94E4089583EB02
:1008E00094E4089584EB94E4089587EB94E40895E8
:1008F0008CEC94E408958DEC94E4089583E895E4F9
:1009000008958AE895E4089582E995E4089584E9D4
:1009100095E4089581E296E4089583E296E40895CB
:1009200084E296E4089585E296E4089586E296E4EA
:10093000089587E296E408958AE296E4089582385D
:10094000910549F1B0F48133910509F458C048F498
:100950008932910509F44EC08A32910509F454C0D8
:1009600008958533910509F440C08933910599F0C4
:100970000895833E910529F138F4803E910591F068
:10098000823E9105A1F00895863E9105F9F0873EDB
:10099000910531F108952091060220FD3AC021FD14
:1009A00038C008958091060280FD35C032C0809124
:1009B000060282FF32C08091060284FD30C083EEC1
:1009C00039C08091060282FD28C0F5CF80910602D1
:1009D00083FF27C08091060284FD21C087EE2AC0D4
:1009E0008091060283FD1DC0F5CF8091060285FD32
:1009F0001AC01BC08091060285FD17C014C08091EB
:100A0000060286FD14C015C08091060286FD11C045
:100A10000EC080EE0FC089E30DC082EE0BC080E0F7
:100A200009C086EE07C089E205C085E303C08AE2FB
:100A300001C081E390E0089508950F931F93CF9331
:100A4000FB012281211102C0C1E041C08C01C09193
:100A50004101C11125C085319047B1F70E941C05A5
:100A600081E0809341010E94C812909340018093DD
:100A70003F0110923401109236011092350110920C
:100A800038011092370110923A01109239011092F8
:100A90003C0110923B0110923E0110923D0117C0A3
:100AA00080913F01909140010E94D412883C9105B1
:100AB00058F690913401E92FF0E0EE0FFF1FEB5C48
:100AC000FE4F118300839F5F90933401C0E08C2F11
:100AD000CF911F910F9108950C94DB010C94DC01D0
:100AE000CF93DF9385B7806885BF85B7806885BF62
:100AF000A7E1B1E041E050E025E02A0F8D91E82F19
:100B0000E295EF70F0E031A18F70BA0102C0660F7C
:100B1000771F8A95E2F7CB01962F9095932391A3A7
:100B200092A1892B82A32A13E9CFA3E1B1E041E08E
:100B300050E024E02A0F8D91E82FE295EF70F0E06D
:100B400031A18F70BA0102C0660F771F8A95E2F754
:100B5000CB01962F9095932391A392A1892B82A3E9
:100B60002A13E9CFC7E4D1E0A2E4B1E0ECE4F1E07C
:100B700085E08E0F119219921D928E13FBCFDF919B
:100B8000CF910C9402032F923F925F926F927F92CB
:100B90008F929F92AF92BF92CF92DF92EF92FF928D
:100BA0000F931F93CF93DF9327E1C22E21E0D22E24
:100BB00002E411E0E801EE24E394F12CAA24A394CA
:100BC00045E0B42EB00EBE0188801882D6018D910A
:100BD0006D01E82FE295EF70F0E021A18F70A70181
:100BE00002C0440F551F8A95E2F7CA01242B21A3A6
:100BF00022A1942E9094292122A350EA5A95F1F72C
:100C000093E1292E91E0392E20E030E0D1017D9052
:100C10001D01472D42954F7050E0DA0190965C908F
:100C20006880572D5F70D70102C0AA0FBB1F5A956D
:100C3000E2F7AD01452139F44E2D022E01C0440FDB
:100C40000A94EAF701C040E0462948832F5F3F4FEE
:100C500024303105D9F691A1992291A292A1892B34
:100C600082A32196FB018081881641F0A092510158
:100C70000E94C8129093530180935201BC12A3CFDB
:100C800080915101882391F08091520190915301FC
:100C90000E94D412069750F0ECE4F1E0D8018D9157
:100CA0008D018193BA12FACF109251010E94040370
:100CB00081E0DF91CF911F910F91FF90EF90DF9036
:100CC000CF90BF90AF909F908F907F906F905F90EC
:100CD0003F902F900895E82FF0E0E45BFE4F808175
:100CE0000895089590935901809358010895E091D3
:100CF0005801F0915901309721F00190F081E02DD9
:100D0000099480E00895E0915801F09159013097DD
:100D100021F00280F381E02D09940895E0915801BB
:100D2000F0915901309721F00480F581E02D09946C
:100D3000089520915601309157018217930771F061
:100D40009093570180935601E0915801F091590119
:100D5000309721F00680F781E02D099408952091C5
:100D60005401309155018217930771F0909355010A
:100D700080935401E0915801F0915901309721F08E
:100D80000084F185E02D0994089508950C94C5061A
:100D90000E94BF120E9470050C948913CF92DF92BB
:100DA000EF92FF920F931F93CF93DF93CDB7DEB7F0
:100DB0002B970FB6F894DEBF0FBECDBF0E94C305C0
:100DC0008BE5C82E81E0D82E00E010E0E02E802FC9
:100DD0000E946B06F60141916F01F42EF826B1F4E2
:100DE0000F5F1F4F0530110589F78FEF89838A83C5
:100DF0001B820E94C8128160782F9D838C83498159
:100E00005A816B818D810E94710740C09091D501FC
:100E100091FF04C08B870E9471068B8520E030E033
:100E20004F2D50E0922FBA01022E02C075956795A2
:100E30000A94E2F760FF24C02E83EF8221E030E0C5
:100E4000690102C0CC0CDD1C9A95E2F790E08C2180
:100E50009D21892B09F420E028870E94C812816017
:100E6000782F9A8789874E815F8168858A850E945D
:100E70007107F801E55AFE4F8081C826C08206C07E
:100E80002F5F3F4F2430310569F6AACF0E942C1600
:100E900010915A010E9477061817A1F00E94770658
:100EA00080935A012B960FB6F894DEBF0FBECDBFCC
:100EB000DF91CF911F910F91FF90EF90DF90CF9036
:100EC0000C9408032B960FB6F894DEBF0FBECDBF6F
:100ED000DF91CF911F910F91FF90EF90DF90CF9016
:100EE0000895CF93DF93CDB7DEB72B970FB6F89465
:100EF000DEBF0FBECDBF4F83588769877A878B8748
:100F0000DE01119686E0FD0111928A95E9F785E0F0
:100F1000FE01379601900D928A95E1F749815A8139
:100F20006B817C818D819E810E94C00D2B960FB6B6
:100F3000F894DEBF0FBECDBFDF91CF910895882317
:100F400009F4C4C0823859F40E94770681FDBEC0FE
:100F500089E30E9412110E94DF1189E30CC08338DB
:100F600071F40E94770680FDB1C083E50E941211E2
:100F70000E94DF1183E50E9454110C94DF11843824
:100F800059F40E94770682FDA1C087E40E941211E5
:100F90000E94DF1187E4EFCF9CEF980F913A18F48D
:100FA0000E941211EACF90E2980F983050F48770A7
:100FB00091E001C0990F8A95EAF7892F0E94981154
:100FC000DCCF9BE5980F933070F4853A29F0863A90
:100FD00031F083E890E005C081E890E002C082E84B
:100FE00090E00C94990698E5980F953108F06EC042
:100FF000883A61F1893A69F18A3A71F18B3A79F16B
:101000008C3A81F18B3B89F18C3B91F18D3A99F1CE
:10101000803BA1F18E3AA9F18F3AB1F1813BB9F150
:10102000823BC1F1833BC9F1843BD1F1853BD9F1CE
:10103000863BE1F1873BE9F1883BF1F1893BF9F12E
:101040008A3B09F43FC080E090E03EC082EE90E031
:101050003BC089EE90E038C08AEE90E035C085EB69
:1010600090E032C086EB90E02FC083EB90E02CC084
:1010700084EB90E029C087EB90E026C08CEC90E0F8
:1010800023C08DEC90E020C083E891E01DC08AE889
:1010900091E01AC082E991E017C084E991E014C0A0
:1010A00081E292E011C083E292E00EC084E292E01D
:1010B0000BC085E292E008C086E292E005C087E2BC
:1010C00092E002C08AE292E00C94AF060895882371
:1010D00009F44BC0823859F40E94770681FF45C05D
:1010E00089E30E9412110E94DF1189E30CC083384A
:1010F00071F40E94770680FF38C083E50E941211C8
:101100000E94DF1183E50E9454110C94DF11843892
:1011100059F40E94770682FF28C087E40E941211CA
:101120000E94DF1187E4EFCF9CEF980F913A58F3BC
:1011300090E2980F983050F4877091E001C0990FB9
:101140008A95EAF7892F0E949E11DFCF9BE5980FC1
:10115000933020F480E090E00C949906885A853111
:1011600020F480E090E00C94AF060895882321F0ED
:101170000E9498110C94DF110895882321F00E9499
:101180009E110C94DF1108957F928F929F92AF92DF
:10119000BF92CF92DF92EF92FF920F931F93CF9364
:1011A000DF931F92CDB7DEB77C01C62E772EFC01F0
:1011B000058102950F70128111110E94B5110E94D4
:1011C0000B11882379F0112369F080E28C0D8830AF
:1011D00048F082E00E94F4100E940B1191E0D82E9A
:1011E000D92601C0D12CE72DE295EF70F0E0E85947
:1011F000FF4F0C941A1F872D807F072D0F708823B7
:1012000011F00295007F112399F0002309F49CC18D
:1012100080E28C0D883010F0C11004C0802F0E9435
:10122000981103C0802F0E94A8110E94DF118CC169
:101230008C2D0E946708002309F49FC180E28C0D69
:10124000883010F0C11004C0802F0E949E1103C08E
:10125000802F0E94AE110E94DF118FC1872D807FE9
:10126000972D9F70803211F4892F03C0892F8295AA
:10127000807FCC2021F0F1E0CF16A1F01DC011231A
:1012800039F0002319F1013009F50E94C81175C128
:10129000002319F0013009F470C189830E94CB1139
:1012A000898110C1112321F0063008F066C10EC0FB
:1012B000053008F062C106C1112359F0002331F056
:1012C000F701958190FF40C19F7095830E94B608F9
:1012D00054C1002309F4F6C03DC1872D869586953B
:1012E000837090E0009719F0019761F046C11123D7
:1012F00021F08C2D972D937002C080E090E00E9429
:1013000099063BC1112321F08C2D972D937002C0BB
:1013100080E090E00E94AF0630C18C2D112319F0BF
:101320000E94341502C00E949C150E94211625C1FE
:10133000872D837009F052C011111FC18C2D829529
:1013400086958770880F880F9C2D9F70892E912C11
:10135000A12CB12C082E04C0880C991CAA1CBB1C03
:101360000A94D2F7C4FE14C00FE010E020E030E091
:10137000B901A80104C0440F551F661F771F8A9545
:10138000D2F7CB01BA01609570958095909503C016
:1013900060E070E0CB01272D26952695237030E084
:1013A0002230310569F02330310589F06829792927
:1013B0008A299B292130310571F00E94080FDDC078
:1013C000682979298A299B290E94240FD6C00E9466
:1013D000080FC501B4010E94EC0ECFC0112319F013
:1013E000872D817001C08695882309F4C6C08C2D95
:1013F000829586958770880F880F9C2D9F70892E07
:10140000912CA12CB12C082E04C0880C991CAA1C6C
:10141000BB1C0A94D2F7C4FE14C00FE010E020E019
:1014200030E0B901A80104C0440F551F661F771FA3
:101430008A95D2F7CB01BA01609570958095909509
:1014400003C060E070E0CB01272D26952695237020
:10145000422F50E04230510569F04330510589F088
:10146000682979298A299B294130510571F00E9408
:10147000E20F83C0682979298A299B290E94FE0FDF
:101480007CC00E94E20FC501B4010E94C60F75C066
:101490008C2D90E0FC01E05EF109E531F10508F0EA
:1014A0004FC0E858FF4F0C941A1F0C2D0F70872D5A
:1014B0008F71112321F00E945F0F802F07CF0E94B0
:1014C000800F802F0E94BD0858C0112341F00530C5
:1014D00008F053C0872D8F710E94A50F4EC00630B3
:1014E00008F04BC0F7CF112339F0872D8F710E9480
:1014F0005F0F43C01123C9F3872D8F710E94800FA6
:101500003CC0112329F0872D8F710E944A0F35C0EE
:101510000E94400F32C0112351F0172D1F71812FEF
:101520000E945F0F63E0812F0E94EB1026C081E0D4
:101530000E94F410023008F182E00E94F4101DC0F5
:10154000112331F0002389F28C2D0E949F0715C0D2
:10155000002391F28C2D0E9467080FC0472D4F7019
:101560006C2DC7010E94D8010E94640E06C0472D51
:101570004F706C2DC7010E940A03DD20F9F00E9414
:10158000E71080FD1BC0F70112820E94E1100E944B
:101590005F0FC7010E94ED0A0E94E1100F90DF91DA
:1015A000CF911F910F91FF90EF90DF90CF90BF9060
:1015B000AF909F908F907F900C94800F0F90DF9151
:1015C000CF911F910F91FF90EF90DF90CF90BF9040
:1015D000AF909F908F907F9008950F931F93CF931C
:1015E000DF93EC01888199812B813C81232BB9F019
:1015F0009F3F11F48F3F99F0CE010E94F1018823A3
:1016000071F0688179818A810E94BE108C010E94EC
:101610001A100E94E10EB801CE010E94C408DF91A9
:10162000CF911F910F9108950E94B5110E94C5118D
:101630000E948A110E94DF110E94D1160E94211679
:1016400080E090E00E94990680E090E00C94AF0664
:101650000E94A5110C94140B0E94B310E92FE2957F
:10166000EF70F0E03297EE30F105B0F4E357FF4F42
:101670000C941A1F803F91F018F4803E68F40EC05D
:10168000843F51F40BC0803E48F0813F29F406C0EE
:1016900093FB882780F9089580E0089581E00895FC
:1016A000CF93DF9300D000D01F92CDB7DEB70F905D
:1016B0000F900F900F900F90DF91CF910895CF93DF
:1016C000DF9300D000D000D0CDB7DEB726960FB69E
:1016D000F894DEBF0FBECDBFDF91CF9108951F9369
:1016E000CF93DF93C091610116E080916201C8172A
:1016F00099F0D0E01C9FF0011D9FF00D1124ED59D1
:10170000FE4F4081518162817381848195810E9465
:101710005F0B2196C770E9CFDF91CF911F9108959C
:1017200040919301509194016091950170919601BF
:1017300080919701909198010C945F0B8091980192
:1017400082958F7009F054C080919501882309F427
:101750004FC080916101A0916201609193017091ED
:1017600094014091960150919701B6E08A1709F4CF
:101770003FC090E041155105C1F17F3F11F46F3F2B
:10178000A1F1B89FF001B99FF00D1124ED59FE4F62
:10179000218172132AC02081621327C02281211166
:1017A00024C0238134812417350710F421503109D6
:1017B000241B350B283C3105C0F4209198012F7073
:1017C00020612093980126E0289FF001299FF00DC9
:1017D0001124E859FE4F80818F708061808383E9F6
:1017E00091E00E94ED0A0C946F0B01968770BECFBA
:1017F0000895CF92DF92EF92FF920F931F93CF93B2
:10180000DF93CDB7DEB762970FB6F894DEBF0FBE99
:10181000CDBF8C0185E0F801DE011D9601900D928F
:101820008A95E1F7D8014C9111965C911197129627
:101830006C9112971396CD90DC9014973091930190
:10184000709194018091960190919701009709F40D
:101850006BC17F3F19F43F3F09F466C1E0909501E9
:10186000EE2009F4C0C020919801C816D90628F0CE
:10187000F601E81BF90BCF0104C0809590958C0D03
:101880009D1DFF24F394883C910578F0F12C207F76
:1018900009F0C6C07C2DD98AC88A89890E94500B5C
:1018A00083E991E00E94ED0AB1C0822F807F09F0A8
:1018B00046C0751314C0341312C0611110C02F70CC
:1018C0002061209398010E94900B83E991E00E948F
:1018D000ED0A80919801D80115968C932EC0CD28E1
:1018E00019F15F3F11F44F3FF9F0F62E61111CC062
:1018F000809161012091620136E0821709F45AC09B
:1019000090E0389FF001399FF00D1124ED59FE4F02
:101910007181571306C07081471303C07281711122
:1019200003C001968770E9CFF62E662309F418C12B
:1019300080919801816080939801F12C11C17513F9
:1019400008C0341306C0611104C080919801D80109
:10195000C3C04D875E878D859E856A8B0E942C0B48
:101960006A898823E1F16623D1F120919801822FC1
:1019700082958F7090E0029774F08091930190911E
:10198000940198878F831986DB86CA862C87CE01BF
:1019900007960E94ED0A86E0F801A3E9B1E0019004
:1019A0000D928A95E1F70E949E0B0E94900BFF24F6
:1019B000F394D6C04D875E878D859E850E94B310B7
:1019C000292F22952F7030E0223031050CF0BCC059
:1019D0009F7009F0B6C0805E883008F4C1C0C801AD
:1019E0000E94ED0AE4CFC816D90608F453C0F601E8
:1019F000E81BF90BCF01883C910508F450C0F12C8D
:101A00007C2DD98AC88A89890E94500BE3E9F1E0CC
:101A100086E0DF011D928A95E9F70E94900BA0C035
:101A2000751314C0341312C0611110C08091980155
:101A3000F8018583C8010E94ED0A86E0E3E9F1E040
:101A4000DF011D928A95E9F7FE2C8AC04D875E87DB
:101A50008D859E856A8B0E942C0B6A89882309F4E8
:101A6000BECF662309F4BBCF20919801822F8295C7
:101A70008F7090E002970CF48ECF8091930190913B
:101A800094019A8389831B82DD82CC822E83CE01CE
:101A900001967FCF809590958C0D9D1DACCFF62E35
:101AA000662309F49CCF75132EC034132CC02091EB
:101AB000980120FD1FC0822F82958F70D9F0D80128
:101AC00015962C9315978F3049F08F5F982F92952C
:101AD000907F822F8F70892B15968C93C8010E945E
:101AE000ED0A86E0F801A3E9B1E001900D928A9534
:101AF000E1F793CF86E0F801A3E9B1E001900D9200
:101B00008A95E1F72DC04D875E878D859E850E9461
:101B10002C0B811140CF80919801816080939801B6
:101B2000C8010E94ED0A1CC0662309F458CF4D87F6
:101B30005E878D859E850E942C0B882309F44FCFEC
:101B40002ACF811148CF0CC0243031050CF047CF8B
:101B50009F7009F440CFF8019581907F09F03BCF49
:101B60008F2D62960FB6F894DEBF0FBECDBFDF910A
:101B7000CF911F910F91FF90EF90DF90CF9008953C
:101B80001F93CF93DF93CDB7DEB72C970FB6F894A2
:101B9000DEBF0FBECDBF4F83588769877A878B879B
:101BA0009C87CE0107960E94F90B882369F08F81EC
:101BB00098852A853B85232BF1F19F3F09F063C06F
:101BC0008F3F09F060C037C086E0FE013796DE0126
:101BD000119601900D928A95E1F76F817885EA85DB
:101BE000FB85309741F17F3F11F46F3F21F1209148
:101BF000620130E0C9010196877099274091610127
:101C000050E08417950709F447C069837A83FD8300
:101C1000EC8396E0929FD001939FB00D1124AD59B3
:101C2000BE4FFE01319601900D929A95E1F7809397
:101C300062010E946F0B16E0809161019091620138
:101C40008917C1F1189FC00111248D599E4F0E9420
:101C5000F90B882379F1E09161011E9FF0011124B5
:101C6000ED59FE4F4081518162817381848195815C
:101C70000E945F0B8091610190E001968770992727
:101C800080936101D9CF4F81588569857A858B858D
:101C90009C850E945F0BCFCF0E94280B109262019F
:101CA00010926101E3E9F1E086E0DF011D928A957F
:101CB000E9F7C1CF2C960FB6F894DEBF0FBECDBFAB
:101CC000DF91CF911F910895EF92FF920F931F9391
:101CD000CF93DF938C01892B09F46CC0F12CEE2497
:101CE000E394E8012196F8018491843740F484302C
:101CF00008F051C0813081F0823019F15BC0853726
:101D000009F444C0A8F19CE7980F903708F052C03E
:101D10008F770E94670841C00E5F1F4FFE01C4917C
:101D200080E28C0F883048F4C7708E2D01C0880F78
:101D3000CA95EAF70E94B81114C08C2F0E949F0721
:101D40002DC00E5F1F4FFE01C49180E28C0F8830C2
:101D500058F4C7708E2D01C0880FCA95EAF70E940B
:101D6000BE110E94DF111AC08C2F0E94670816C096
:101D70000E5F1F4FFE01C491CC2381F08FE99FE0DD
:101D80000197F1F700C00000C150F6CF0E5F1F4F62
:101D9000FE01F49003C00E949F078E018F2D8823BF
:101DA00009F49FCFEFE9FFE03197F1F700C00000A1
:101DB0008150F5CFDF91CF911F910F91FF90EF9060
:101DC000089508956093AC017093AD018093AE01C6
:101DD0009093AF010C94140B0F931F930091AC01DF
:101DE0001091AD012091AE013091AF01DC01CB012A
:101DF000802B912BA22BB32B8093AC019093AD0140
:101E0000A093AE01B093AF011F910F910C94140BEE
:101E10000F931F930091AC011091AD012091AE0181
:101E20003091AF01DC01CB0180239123A223B323A6
:101E30008093AC019093AD01A093AE01B093AF013C
:101E40001F910F910C94140B0F931F930091AC01F1
:101E50001091AD012091AE013091AF01DC01CB01B9
:101E600080279127A227B3278093AC019093AD01DF
:101E7000A093AE01B093AF011F910F910C94140B7E
:101E80001092A8011092A9011092AA011092AB0120
:101E90000C94140B41E050E060E070E004C0440F8B
:101EA000551F661F771F8A95D2F74093A80150935C
:101EB000A9016093AA017093AB010C94140B41E04B
:101EC00050E060E070E004C0440F551F661F771FAC
:101ED0008A95D2F78091A8019091A901A091AA01B9
:101EE000B091AB01482B592B6A2B7B2B4093A80157
:101EF0005093A9016093AA017093AB010C94140B49
:101F000041E050E060E070E004C0440F551F661FE0
:101F1000771F8A95D2F7409550956095709580917E
:101F2000A8019091A901A091AA01B091AB01482309
:101F300059236A237B234093A8015093A9016093FE
:101F4000AA017093AB010C94140B41E050E060E0E7
:101F500070E004C0440F551F661F771F8A95D2F7A3
:101F60008091A8019091A901A091AA01B091AB0123
:101F7000482759276A277B274093A8015093A90136
:101F80006093AA017093AB010C94140B0F931F93F1
:101F90000091A8011091A9012091AA013091AB01F3
:101FA000DC01CB01802B912BA22BB32B8093A801BA
:101FB0009093A901A093AA01B093AB011F910F9137
:101FC0000C94140B0F931F930091A8011091A90179
:101FD0002091AA013091AB01DC01CB018023912338
:101FE000A223B3238093A8019093A901A093AA01EF
:101FF000B093AB011F910F910C94140B0F931F938F
:102000000091A8011091A9012091AA013091AB0182
:10201000DC01CB0180279127A227B3278093A80159
:102020009093A901A093AA01B093AB011F910F91C6
:102030000C94140B0895990F990F890FA82FA6954A
:10204000A695A695877051E001C0550F8A95EAF7CD
:1020500085E0A89FD001112420E030E070E0F90174
:10206000EA0FFB1FE756FE4F4081CB01022E02C054
:10207000969587950A94E2F7817099278195842730
:102080008523842780832F5F3F4F2530310539F723
:102090000895990F990F890F682F66956695669533
:1020A000982F977085E0689FB001112440E050E0C0
:1020B00080E0FA01E60FF71FE756FE4F208130E07F
:1020C000092E02C0369527950A94E2F7217033272E
:1020D000042E01C0220F0A94EAF7822B4F5F5F4F54
:1020E0004530510531F70895CF92DF92EF92FF927C
:1020F0000F931F93CF93DF938C01C090AC01D090CE
:10210000AD01E090AE01F090AF018091A8019091F7
:10211000A901A091AA01B091AB01C82AD92AEA2A43
:10212000FB2ACFE1D0E0D701C6010C2E04C0B69542
:10213000A795979587950A94D2F780FF06C0B801B6
:102140008C2F0E942703019721F4219760F780E0EC
:1021500001C08C2FDF91CF911F910F91FF90EF90D5
:10216000DF90CF900895CF93DF93EC010E9474101D
:10217000BE010E942703DF91CF9108951F93CF9353
:10218000DF93EB0190916001992321F0CB010E9434
:10219000B31013C0882349F0CB010E947410182F8C
:1021A000682FCE010E941B1004C0CB010E94491071
:1021B000182FBE01812F0E942703DF91CF911F911D
:1021C00008958091B00185958595859508958091B4
:1021D000B0018770089598E0899F90011124262B03
:1021E0002093B0010C945F0F2091B0018095822361
:1021F0008093B001982F977069F430E0482F082E33
:10220000000C550B2417350729F085958595859584
:102210000C94800F08959091B001977081E009F4BB
:1022200080E0089590911201992321F09091060287
:1022300097FD09C02091000130910101F90132960A
:102240009FEF40E01FC0982F9695969596959F31E9
:1022500050F5E0910001F0910101E90FF11D877047
:1022600021E030E0A90102C0440F551F8A95E2F732
:10227000CA019181892B818308959F3F39F04F5F77
:102280004E3141F051915813F8CF0DC05111F7CF95
:10229000942FF5CF9F3F39F0F901E90FF11D97FD1C
:1022A000FA9582830895089590911201992321F05F
:1022B0009091060297FD09C0209100013091010123
:1022C000F9013296205E3F4F1FC0982F9695969544
:1022D00096959F31F0F4E0910001F0910101E90F32
:1022E000F11D877021E030E0A90102C0440F551FA5
:1022F0008A95E2F7CA0180959181892381830895A7
:102300003196E217F30729F090819813F9CF1082E4
:10231000F7CF089581E090E0E0910001F091010194
:10232000E80FF91F1082019680329105A9F70895F0
:102330009091D401892B8093D40108958095909138
:10234000D40189238093D40108951092D401089573
:102350009091D301892B8093D3010895809590911A
:10236000D30189238093D30108951092D301089556
:102370009091D201892B8093D201089580959091FC
:10238000D20189238093D20108951092D201089539
:102390008093B10108951092B101089580910001D8
:1023A00090910101FC0131969C01205E3F4F80E03D
:1023B000919191118F5FE217F307D1F70895E091A2
:1023C0000001F09101018091D4018083E09100012E
:1023D000F091010190818091D301892B8083E0915C
:1023E0000001F091010190818091D201892B8083BD
:1023F0008091B101882361F0E0910001F091010129
:102400009081892B80830E94CE1181111092B1019D
:1024100080910001909101010C9483066DEE7EEF96
:1024200080E090E00E94541F60E082E090E00E9413
:10243000421F60E083E090E00E94421F60E084E081
:1024400090E00E94421F60E085E090E00C94421F03
:1024500080E090E00E943C1F21E08D3E9E4F09F0FD
:1024600020E0822F089582E090E00C94341F682FC2
:1024700082E090E00C94421F83E090E00C94341FC3
:10248000682F83E090E00C94421F84E090E00C946D
:10249000341F682F84E090E00C94421F80910C025E
:1024A000843039F11092D60120E488E190E00FB633
:1024B000F894A895809360000FBE2093600080E0A0
:1024C0000E94080383B7817F846083BF83B78160E4
:1024D00083BF7894889583B78E7F83BF0FB6F894B7
:1024E000A8958091600088618093600010926000E0
:1024F0000FBE089508950895CF930E947A120E9406
:10250000C3050E947B12C0E08C2F0E946B068111D4
:1025100004C0CF5FC530C1F701C081E0CF910895FD
:102520000E94280B0E9477060C9408031F920F92BA
:102530000FB60F9211248F939F93AF93BF93809107
:10254000D601811113C08091020290910302A091E3
:102550000402B09105024196A11DB11D80930202B3
:1025600090930302A0930402B0930502BF91AF9130
:102570009F918F910F900FBE0F901F90189582E042
:1025800084BD93E095BD9AEF97BD80936E0008954A
:102590002FB7F8948091020290910302A091040257
:1025A000B09105022FBF0895CF92DF92EF92FF9274
:1025B0000F931F932FB7F89440910202509103029A
:1025C00060910402709105022FBF6A017B01EE2425
:1025D000FF248C0120E030E0C016D106E206F306AD
:1025E00010F4415051099A01281B390BC9011F9160
:1025F0000F91FF90EF90DF90CF9008951F920F9270
:102600000FB60F9211248F939F93AF93BF93809136
:10261000020290910302A0910402B091050201967A
:10262000A11DB11D8093020290930302A0930402A6
:10263000B0930502BF91AF919F918F910F900FBE04
:102640000F901F9018950E94D71AF8942FEF87EAE1
:1026500091E6215080409040E1F700C0000087E003
:1026600090EBDC018093150290931602A093170261
:10267000B09318029CE088E10FB6F894A895809377
:1026800060000FBE90936000FFCFCF92DF92EF9279
:10269000FF920F931F93CF93C0E0E82EF12C8C2F65
:1026A0000E946B0600E010E0C82ED12CC601002E5F
:1026B00002C0959587950A94E2F780FD06C00F5FEA
:1026C0001F4F0430110591F70AC0602F7C2F80E066
:1026D0000E940B03E816F90691F781E004C0CF5F72
:1026E000C530E9F680E0CF911F910F91FF90EF90F8
:1026F000DF90CF900895CF93C82F8CE20E944513AE
:10270000882321F08C2FCF910C94451380E0CF913A
:102710000895CF930E942812811102C00E940E12C8
:10272000C5E6C15049F00E94C3058FE39CE90197BB
:10273000F1F700C00000F5CF89E20E947B13811100
:102740000FC18AE20E947B1381110E940E1285E064
:102750000E947B1381110E9423130E9433128093E5
:10276000D50187E00E947B138823A9F18BE10E94A9
:102770007B13882351F08091D50181FB222720F91A
:1027800091E0922790FB81F90EC08EE00E947B13AE
:10279000882361F08091D50182FB222720F991E006
:1027A000922790FB82F98093D50115C080E10E94A9
:1027B0007B139091D501882341F093FB222720F9C8
:1027C00081E0822780FB93F904C0892F809580FBEC
:1027D00090F99093D5018091D5010E9437120E9403
:1027E000451290E0909307028093060280EE0E94CB
:1027F0007B13882341F080910602982F909590FBDF
:1028000080F98093060289E30E947B13882359F0A4
:102810008091060281FB222720F991E0922790FB0C
:1028200081F98093060282EE0E947B13882359F07F
:102830008091060282FB222720F991E0922790FBEB
:1028400082F98093060286EE0E947B13882359F05A
:102850008091060283FB222720F991E0922790FBCA
:1028600083F98093060283EE0E947B13882359F03C
:102870008091060284FB222720F991E0922790FBA9
:1028800084F98093060285E30E947B13882359F024
:102890008091060285FB222720F991E0922790FB88
:1028A00085F98093060281E30E947B13882359F007
:1028B0008091060286FB222720F991E0922790FB67
:1028C00086F98093060281E10E947B13882359F0E8
:1028D0008091060287FB222720F991E0922790FB46
:1028E00087F980930602809106020E94491287E2CE
:1028F0000E947B13C82F8EE10E947B138111C2605E
:102900008FE10E947B138111C46080E20E947B13DF
:102910008111C86081E20E947B138111C06182E253
:102920000E947B138111C06283E20E947B1381119C
:10293000C06484E20E947B13882311F0C06802C047
:10294000CC2329F08C2F0E9440126C2F03C00E94D0
:102950003C12682F70E080E090E0CF910C94E20E82
:10296000CF9108958091D90180FF0BC0609105013E
:1029700085E0689FB00111247595679575956795F9
:102980002BC081FF09C06091050185E0689FB001FF
:1029900011247595679520C082FF07C060910501DD
:1029A00085E0689FB001112417C09091DA01992346
:1029B000D1F060910401961788F72091050185E018
:1029C000289F90011124929FA001939F500D1124E4
:1029D00070E0CA010E94061F6038710540F461155D
:1029E000710539F002C065E070E0862F08958FE729
:1029F000089581E008958091D90180FF08C0609119
:102A0000030170E0759567957595679521C081FF05
:102A100006C06091030170E07595679519C082FF4B
:102A200004C06091030170E010C09091DA01992315
:102A3000C1F0609102019617A0F780910301899F70
:102A4000C001112470E00E94061F6038710528F44F
:102A50006115710521F0862F08958FE7089581E0B3
:102A6000089561E070E0F4CF803F21F40E94B21439
:102A7000819504C0813F29F40E94B2148093DD0146
:102A80000895823F21F40E94B214819504C0833FCF
:102A900029F40E94B2148093DC010895893F19F44F
:102AA0000E94FB1405C08A3F31F40E94FB148195FB
:102AB0008093DE0108958B3F21F40E94FB148195E1
:102AC00004C08C3F29F40E94FB148093DF01089519
:102AD000843F21F48091DB01816017C0853F21F4A0
:102AE0008091DB01826011C0863F21F48091DB017F
:102AF00084600BC0873F21F48091DB01886005C0B2
:102B0000883F31F48091DB0180618093DB0108957F
:102B10008D3F21F48091D90181600BC08E3F21F45B
:102B20008091D901826005C08F3F29F48091D9013D
:102B300084608093D9010895803F39F48091DD014C
:102B400087FF6CC01092DD0169C0813F29F480913C
:102B5000DD011816BCF362C09091DC01823F29F4BC
:102B600097FF5CC01092DC0159C0833F19F419161D
:102B7000CCF354C0893F41F48091DE0118160CF06B
:102B80004DC01092DE014AC08A3F29F48091DE01D7
:102B900087FF44C0F6CF8B3F39F48091DF0187FF78
:102BA0003DC01092DF013AC08C3F29F48091DF01D3
:102BB0001816BCF333C0843F21F48091DB018E7F73
:102BC00017C0853F21F48091DB018D7F11C0863FC6
:102BD00021F48091DB018B7F0BC0873F21F4809132
:102BE000DB01877F05C0883F31F48091DB018F7E58
:102BF0008093DB0113C08D3F21F48091D9018E7F3A
:102C00000BC08E3F21F48091D9018D7F05C08F3F8D
:102C100029F48091D9018B7F8093D9018091DC01C7
:102C200081110EC08091DD0181110AC08091DE0109
:102C3000811106C08091DF01811102C01092DA017A
:102C400008958BED91E00E948E060E94C812909329
:102C5000D8018093D70108951F93CF93DF9380917C
:102C6000D7019091D8010E94D412AC019091DA0161
:102C7000992321F02091060130E006C02091070140
:102C80008AE0289F900111244217530708F485C059
:102C90008091DC01C091DD01D091DE011091DF0156
:102CA000811107C0C11175C0D11173C0111171C05C
:102CB00074C09F3F19F09F5F9093DA01181624F4B7
:102CC0000E94B2148093DC018091DC0187FF05C073
:102CD0000E94B21481958093DC011C1624F40E949A
:102CE000B2148093DD018091DD0187FF05C00E9451
:102CF000B21481958093DD016091DC01662331F18E
:102D0000C091DD01CC2311F1062E000C770B880B4E
:102D1000990B0E940D1E23E333E343E35FE30E941C
:102D2000711E0E94D51D6093DC016C2FCC0F770BB8
:102D3000880B990B0E940D1E23E333E343E35FE30B
:102D40000E94711E0E94D51D6093DD011D1624F4A2
:102D50000E94FB148093DE018091DE0187FF05C095
:102D60000E94FB1481958093DE01111624F40E94C9
:102D7000FB148093DF018091DF0187FF05C00E9473
:102D8000FB1481958093DF01DF91CF911F910C940B
:102D900021169F3F09F08FCF97CFDF91CF911F91E1
:102DA0000895EBEDF1E085E0DF011D928A95E9F7EA
:102DB0001092DA011092D9010895809100020895CD
:102DC000CF93DF9300D01F92CDB7DEB79C018091E7
:102DD0000C02843019F593E099833B832A83909306
:102DE000E9008FEF9091E800815095FD06C095EDC8
:102DF0009A95F1F700008111F5CF8091E80085FFE9
:102E00000DC040E050E063E070E0CE0101960E940A
:102E100042198091E8008E778093E8000F900F9020
:102E20000F90DF91CF910895CF93DF9300D01F9241
:102E3000CDB7DEB720910C02243031F522E0298392
:102E4000805891099B838A8383E08093E9008FEF08
:102E50009091E800815095FD06C095ED9A95F1F7A7
:102E600000008111F5CF8091E80085FF0DC040E0A2
:102E700050E063E070E0CE0101960E94421980911B
:102E8000E8008E778093E8000F900F900F90DF910D
:102E9000CF91089520910C022430F1F422E0209388
:102EA000E9002FEF3091E800215035FD06C035EDE7
:102EB0003A95F1F700002111F5CF2091E80025FFA8
:102EC0000BC040E050E065E070E00E944219809144
:102ED000E8008E778093E8000895CF93DF93EC01AC
:102EE00090910C02943009F046C080911201882321
:102EF000D9F08091060287FF17C09093E9008FEF09
:102F00009091E800815095FD06C095E19A95F1F702
:102F100000008111F5CF8091E80085FF2CC040E0D2
:102F200050E060E270E017C081E08093E9008FEF2D
:102F30009091E800815095FD06C095ED9A95F1F7C6
:102F400000008111F5CF8091E80085FF14C040E0BA
:102F500050E068E070E0CE010E9442198091E800E4
:102F60008E778093E80080E2FE01A0EEB1E0019050
:102F70000D928A95E1F7DF91CF91089580910B0230
:102F8000811109C00E94D71A0E94341B8091E2006F
:102F900084608093E200089510920B0208950895D2
:102FA00008950C94901242E061EC81E00E94511A65
:102FB00042E061EC82E00E94511A42E061EC83E061
:102FC0000E94511A42E261EC84E00C94511A809103
:102FD0000E02833009F455C030F4813071F0823034
:102FE00009F48EC008958A3009F47AC08B3009F450
:102FF00060C0893009F09CC020C080910D02813AE8
:1030000009F096C08091E800877F8093E800809166
:10301000110290911202892B21F460E280EE91E07E
:1030200003C060E080E090E070E00E948D19809124
:10303000E8008B778093E800089580910D0281323B
:1030400009F076C08091110290911202009719F058
:10305000039709F06DC08091E800877F8093E800B6
:103060008091E80082FD05C080910C028111F8CFAB
:103070005FC08091F100809300028091E8008B771F
:1030800053C080910D02813A09F052C08091110223
:1030900090911202892B09F04BC08091E800877F44
:1030A0008093E8008091E80080FFFCCF80911201BE
:1030B00036C080910D028132D9F580911102909134
:1030C0001202892BA9F58091E800877F8093E800A0
:1030D0000E94861A80910F02809312010C94280B93
:1030E00080910D02813221F58091E800877F8093E5
:1030F000E8000E94861A80911002809301020895D0
:1031000080910D02813AA1F48091E800877F80933D
:10311000E8008091E80080FFFCCF8091010280935D
:10312000F1008091E8008E778093E8000C94861A75
:10313000089584B7877F84BF0FB6F894A8958091CF
:103140006000886180936000109260000FBE80E88C
:1031500080936100109261000E94C6060E94D71AF7
:103160000E94341B8091E20084608093E200789496
:103170000E94BA1D0E94C80688E091E00E94720673
:1031800080910C02853069F40E944E1280910A02EF
:103190008823B1F30E947C12882391F30E942C199A
:1031A000EFCF0E94CE06ECCF292F332723303105F5
:1031B000C9F064F42130310581F02230310509F085
:1031C00043C08DE690E022EA31E042C02132310571
:1031D000F1F02232310541F137C082E190E02FE079
:1031E00032E036C099278130910541F08230910557
:1031F00041F0892B49F5EEE9F1E005C0E6E8F1E0A0
:1032000002C0E2E7F1E0849190E09F0121C06430C8
:10321000D8F4E62FF0E0EE0FFF1FE85DFE4F2081AF
:10322000318189E090E014C0643070F470E0FB01FB
:10323000EE0FFF1FE05EFE4F20813181FB01E45E57
:10324000FE4F808190E004C080E090E020E030E01C
:10325000FA0131832083089580E189BD82E189BD2F
:1032600009B400FEFDCF8091D8008F7D8093D800F7
:103270008091E00082608093E0008091E00081FD19
:10328000FCCF0895CF92DF92EF92FF920F931F939E
:10329000CF93DF93EC018B016A010E94A51A811183
:1032A00033C0C114D10439F0F60180819181081B2B
:1032B000190BC80FD91FE12CF12C0115110519F1BB
:1032C0008091E80085FD16C08091E8008E7780939C
:1032D000E800C114D10449F0F60180819181E80E23
:1032E000F91EF182E08285E00FC00E94A51A8823B2
:1032F00021F30AC089918093F10001501109FFEF79
:10330000EF1AFF0ADACF80E0DF91CF911F910F9182
:10331000FF90EF90DF90CF900895209113023091AD
:1033200014022617370748F06115710539F420910A
:10333000E8002E772093E80001C0B90140E0611554
:103340007105A9F120910C02222309F443C0253014
:1033500009F442C02091E80023FD40C02091E8001C
:1033600022FD32C02091E80020FFE9CF4091F30018
:103370002091F20030E0342BFC01CF016115710582
:1033800059F02830310540F481918093F10061506B
:1033900071092F5F3F4FF1CF41E02830310509F02F
:1033A00040E02091E8002E772093E800C8CF41113B
:1033B000C9CF0AC080910C02882361F0853061F08A
:1033C0008091E80083FD0AC08091E80082FFF2CF7F
:1033D00080E0089582E0089583E0089581E00895F3
:1033E00020911302309114022617370748F0611517
:1033F000710539F42091E8002E772093E80001C090
:10340000B901FC0120E06115710591F180910C0278
:10341000882309F440C0853009F43FC08091E8005A
:1034200083FD3DC08091E80082FD2FC08091E800BF
:1034300080FFE9CF2091F3008091F20090E0922B81
:103440006115710559F08830910540F4249120935D
:10345000F1003196615071090196F2CF21E0089791
:1034600009F020E08091E8008E778093E800CBCFD0
:103470002111CCCF0AC080910C02882361F08530E5
:1034800061F08091E80083FD0AC08091E80082FF2E
:10349000F2CF80E0089582E0089583E0089581E00E
:1034A0000895982F973058F59093E900981739F0C0
:1034B0007091EC002091ED005091F00003C0242F9A
:1034C000762F50E021FF19C03091EB003E7F309302
:1034D000EB003091ED003D7F3093ED003091EB003B
:1034E00031603093EB007093EC002093ED0050932B
:1034F000F0002091EE0027FF07C09F5FD3CF8F70B1
:103500008093E90081E0089580E0089580910D02A4
:1035100087FF11C08091E80082FD05C080910C02F8
:103520008111F8CF11C08091E8008B770BC080919A
:103530000C02882349F08091E80080FFF8CF809149
:10354000E8008E778093E80008952091E4003091A0
:10355000E50095E64091EC00842F817040FF22C089
:103560008091E80080FD1CC080910C02882391F0BE
:10357000853091F08091EB0085FD10C04091E40012
:103580005091E5004217530729F39A01915011F722
:1035900084E0089582E0089583E0089581E008952D
:1035A00080E008954091E80042FFDECF08950E9438
:1035B000451B0E944D1BE0EEF0E08081816080831E
:1035C000E8EDF0E080818F77808319BCA7EDB0E053
:1035D0008C918E7F8C9380818F7E808310920B02E2
:1035E00008950F931F93CF93DF930E94451B0E9472
:1035F0004D1BC8EDD0E088818F77888388818068F3
:10360000888388818F7D888319BC10920C02109268
:10361000080210920A021092090200EE10E0F8016E
:1036200080818B7F808388818160888342E060E035
:1036300080E00E94511AE1EEF0E080818E7F80836D
:10364000E2EEF0E080818160808380818860808309
:10365000F80180818E7F8083888180618883DF91FB
:10366000CF911F910F910895E8EDF0E080818F7E5A
:103670008083E7EDF0E080818160808384E082BF19
:1036800081E080930B020C94F11AE8EDF0E0808168
:103690008E7F80831092E20008951092DA001092DB
:1036A000E10008951F920F920FB60F9211242F93ED
:1036B0003F934F935F936F937F938F939F93AF93BA
:1036C000BF93EF93FF938091E10082FF0BC0809145
:1036D000E20082FF07C08091E1008B7F8093E100D0
:1036E0000E94B91D8091DA0080FF1FC08091D80030
:1036F00080FF1BC08091DA008E7F8093DA0080917A
:10370000D90080FF0DC080E189BD82E189BD09B487
:1037100000FEFDCF81E080930C020E94BE1705C021
:1037200019BC10920C020E94CC178091E10080FF1E
:1037300019C08091E20080FF15C08091E2008E7F69
:103740008093E2008091E20080618093E2008091AA
:10375000D80080628093D80019BC85E080930C0269
:103760000E94D0178091E10084FF30C08091E20078
:1037700084FF2CC080E189BD82E189BD09B400FECF
:10378000FDCF8091D8008F7D8093D8008091E1009B
:103790008F7E8093E1008091E2008F7E8093E20033
:1037A0008091E20081608093E2008091080288238A
:1037B00011F084E007C08091E30087FD02C081E042
:1037C00001C083E080930C020E94D1178091E10038
:1037D00083FF29C08091E20083FF25C08091E10032
:1037E000877F8093E10082E080930C0210920802B0
:1037F0008091E1008E7F8093E1008091E2008E7FD6
:103800008093E2008091E20080618093E20042E0D8
:1038100060E080E00E94511A8091F00088608093FF
:10382000F0000E94CF17FF91EF91BF91AF919F9150
:103830008F917F916F915F914F913F912F910F9059
:103840000FBE0F901F9018951F920F920FB60F92F8
:1038500011242F933F934F935F936F937F938F9395
:103860009F93AF93BF93CF93DF93EF93FF93C09159
:10387000E900CF708091EC00D82FD17080FDD0E8A6
:103880001092E9008091F000877F8093F000789497
:103890000E94681C1092E9008091F000886080937B
:1038A000F000CD2BCF70C093E900FF91EF91DF9135
:1038B000CF91BF91AF919F918F917F916F915F91C8
:1038C0004F913F912F910F900FBE0F901F90189521
:1038D0001F93CF93DF93CDB7DEB7AA970FB6F894B7
:1038E000DEBF0FBECDBFEDE0F2E088E08E0F90911D
:1038F000F10091938E13FBCF0E94E7178091E800AF
:1039000083FF1FC180910D0290910E02492F50E05C
:103910004A30510508F015C1FA01E556FF4F0C94E5
:103920001A1F803881F0823809F00BC18091110292
:103930008F708093E9008091EB0085FB882780F9E8
:103940001092E90006C08091090290910A0291113B
:1039500082609091E800977F9093E8008093F10057
:103960001092F100C8C0282F2D7F09F0EAC08823EB
:1039700019F0823061F0E5C080910F02813009F0CA
:10398000E0C0933009F080E080930A022BC0809160
:103990000F02811127C0809111028F7009F4D1C0EC
:1039A0008093E9002091EB0020FF1CC0933021F4AC
:1039B0008091EB00806214C09091EB009061909335
:1039C000EB0021E030E0A90102C0440F551F8A95A9
:1039D000E2F74093EA001092EA008091EB008860E1
:1039E0008093EB001092E9008091E800877F86C009
:1039F0008111A7C010910F021F778091E30080789A
:103A0000812B8093E3008091E800877F8093E8001A
:103A10000E94861A8091E80080FFFCCF8091E3002D
:103A200080688093E300111102C082E001C083E04E
:103A300080930C0286C08058823008F082C080914A
:103A40000F02909110028C3D53E0950779F583E0C9
:103A50008A838AE289834FB7F894DE01139620E0C7
:103A60003EE051E2E32FF0E050935700E49120FF55
:103A700003C0E295EF703F5FEF708E2F90E0EA3069
:103A800010F0C79601C0C0968D939D932F5F24318F
:103A900049F74FBF8091E800877F8093E8006AE292
:103AA00070E0CE0101960E948D1914C0AE014F5FE7
:103AB0005F4F609111020E94D418BC01892B09F458
:103AC00040C09091E800977F9093E80089819A81A7
:103AD0000E94F0198091E8008B778093E80031C054
:103AE000803879F58091E800877F8093E8008091A5
:103AF00008028093F1008091E8008E778093E800BF
:103B00000E94861A1EC081111CC090910F02923033
:103B1000C0F48091E800877F8093E80090930802CA
:103B20000E94861A80910802811106C08091E300EC
:103B300087FD02C081E001C084E080930C020E94F6
:103B4000D3178091E80083FF0AC08091E800877F47
:103B50008093E8008091EB0080628093EB00AA964E
:103B60000FB6F894DEBF0FBECDBFDF91CF911F918E
:103B700008950895CF9380910C028823A1F0C091FD
:103B8000E900CF709091EC00892F817090FD80E862
:103B9000C82B1092E9008091E80083FD0E94681C08
:103BA000CF70C093E900CF9108950E94DC1D689406
:103BB000B1110C946B1E08950E94501E88F09F57FF
:103BC00098F0B92F9927B751B0F0E1F0660F771F41
:103BD000881F991F1AF0BA95C9F714C0B13091F037
:103BE0000E946A1EB1E008950C946A1E672F782F18
:103BF0008827B85F39F0B93FCCF3869577956795FC
:103C0000B395D9F73EF490958095709561957F4F67
:103C10008F4F9F4F0895E89409C097FB3EF490950D
:103C20008095709561957F4F8F4F9F4F9923A9F095
:103C3000F92F96E9BB279395F69587957795679524
:103C4000B795F111F8CFFAF4BB0F11F460FF1BC068
:103C50006F5F7F4F8F4F9F4F16C0882311F096E9FB
:103C600011C0772321F09EE8872F762F05C06623A9
:103C700071F096E8862F70E060E02AF09A95660F62
:103C8000771F881FDAF7880F9695879597F908951B
:103C900057FD9058440F551F59F05F3F71F04795FD
:103CA000880F97FB991F61F09F3F79F087950895E2
:103CB000121613061406551FF2CF4695F1DF08C001
:103CC000161617061806991FF1CF8695710561051E
:103CD00008940895E894BB2766277727CB0197F9C6
:103CE00008950E94841E0C94F51E0E94E71E38F071
:103CF0000E94EE1E20F0952311F00C94DE1E0C9411
:103D0000E41E11240C946B1E0E94481E70F3959FB4
:103D1000C1F3950F50E0551F629FF001729FBB27C2
:103D2000F00DB11D639FAA27F00DB11DAA1F649F5E
:103D30006627B00DA11D661F829F2227B00DA11D11
:103D4000621F739FB00DA11D621F839FA00D611D97
:103D5000221F749F3327A00D611D231F849F600DB8
:103D6000211D822F762F6A2F11249F5750409AF0E1
:103D7000F1F088234AF0EE0FFF1FBB1F661F771F6D
:103D8000881F91505040A9F79E3F510580F00C9438
:103D9000DE1E0C946B1E5F3FE4F3983ED4F38695D1
:103DA00077956795B795F795E7959F5FC1F7FE2BD8
:103DB000880F911D9695879597F9089597F99F67B4
:103DC00080E870E060E008959FEF80EC08950024A3
:103DD0000A941616170618060906089500240A9470
:103DE00012161306140605060895092E0394000CF6
:103DF00011F4882352F0BB0F40F4BF2B11F460FF85
:103E000004C06F5F7F4F8F4F9F4F089597FB072E22
:103E100016F4009407D077FD09D00E94201F07FCFC
:103E200005D03EF4909581959F4F089570956195CA
:103E30007F4F0895EE0FFF1F0590F491E02D099438
:103E4000AA1BBB1B51E107C0AA1FBB1FA617B707C0
:103E500010F0A61BB70B881F991F5A95A9F78095DC
:103E60009095BC01CD010895F999FECF92BD81BD19
:103E7000F89A992780B50895A8E1B0E042E050E0B3
:103E80000C945C1F262FF999FECF92BD81BDF89A44
:103E9000019700B4021639F01FBA20BD0FB6F8948E
:103EA000FA9AF99A0FBE08950196272F0E94431F90
:103EB0000C94421FDC01CB01FC01F999FECF06C036
:103EC000F2BDE1BDF89A319600B40D9241505040D8
:083ED000B8F70895F894FFCF44
:103ED800B2012808140A321EDD166D174A17141786
:103EE800E01601919094F5F434353632404D363968
:103EF800DD0290025A022102B401CD01E601FF0160
:00000001FF
